:100000008A110F2801341934FE00030EFA00040887
:10001000FB000A08FC007F08FD008A11AE2B8A1144
:1000200011288A1102208A11E3008A1103208A1103
:10003000E40083172030840039308A1503278A11A1
:100040008313A0308400D9308A1503278A115530D4
:10005000840063308A1503278A1183018A116F2E69
:100060003028FF0000308A007F08820736288A1176
:10007000302C8A15642F8A11252B01308A113E27D6
:100080008A11FB3E83120313CB00FF3003180030AC
:10009000CC004C08803A803C031D50284B08640279
:1000A000031853285428582883120313871217293A
:1000B00001308A113E278A11053E83120313CB00BB
:1000C000003003180130CC004C08803ACD0080305D
:1000D0004D02031D6D2864084B0203187028712817
:1000E0001429831203138712CE01CF01D001051604
:1000F000982802308A113E278A1183120313CB00FD
:1001000033304B02031C852886288728A3280A3011
:10011000CF070318D00A0030D007343083120313FE
:10012000CC00F130CB00CB0B9328CC0B93280000F4
:100130000030831203135002643003194F02031C72
:10014000A228A328792800305002643003194F02F6
:10015000031CAB28AC28B22805120130E1000130A5
:10016000E30017290717CF01D0018516D6280030E4
:100170008A113E278A1183120313CB0033304B02BE
:10018000031CC328C428C528E1280A30CF07031858
:10019000D00A0030D007343083120313CC00F13082
:1001A000CB00CB0BD128CC0BD1280000013083121F
:1001B000031350022C3003194F02031CE028E128DE
:1001C000B728051207138512013050022C3003198D
:1001D0004F02031CEC28ED2807290130E000023013
:1001E0004E06031DF428F528F8280130E3001729EE
:1001F000153083120313CD004B30CC00BE30CB0042
:10020000CB0B0029CC0B0029CD0B00290929E001DB
:100210001729013083120313CE0703304E02031C4B
:10022000122913297528172983120313871608002A
:10023000043083120313AA000C30A9003330A80045
:10024000A80B2029A90B2029AA0B20290000831222
:100250000313A10103308A1183258A111A308312F6
:100260000313A900F830A800A80B3429A90B3429DE
:1002700083120313A10103308A1183258A110B30E5
:1002800083120313A9006230A800A80B4529A90B0B
:10029000452983120313A10103308A1183258A1192
:1002A0000B3083120313A9006230A800A80B562953
:1002B000A90B562983120313A10102308A11832549
:1002C0008A110B3083120313A9006230A800A80B17
:1002D0006729A90B672983120313A50128308A1502
:1002E0007E278A11063083120313A9003030A8003C
:1002F000A80B7829A90B782983120313A5010830CC
:100300008A157E278A11063083120313A900303024
:10031000A800A80B8929A90B892983120313A50119
:1003200001308A157E278A11153083120313A90024
:10033000C630A800A80B9A29A90B9A298312031387
:10034000A50106308A157E278A1106308312031311
:10035000A9003030A800A80BAB29A90BAB29831248
:100360000313A5010C308A157E278A1106308312EB
:100370000313A9003030A800A80BBC29A90BBC2985
:1003800083120313A50180308A157E278A11063057
:1003900083120313A9003030A800A80BCD29A90BA4
:1003A000CD2908008312031330088400831300084A
:1003B00084008A11BD278A11253A031DE029E1290D
:1003C000712A3008840001308007D501D601003041
:1003D000D900FF30D700FF30D80030088400000873
:1003E000B800380884008A11BD278A11753A031DA8
:1003F000FA29FB29692A310884000008FF0002302D
:1004000080077F0884000008B400840A0008B50053
:10041000300884003808013E8000602A2030B9008E
:100420000130B9023908A03E84000A30A100003032
:10043000A2003508A4003408A3008A1179278A1184
:10044000831203132108303E831380000A30A10079
:100450000030A2003508A4003408A3008A11B62693
:100460008A11831203132208B5002108B40034084E
:10047000350403193C2A3D2A592A3908031D412A0B
:10048000422A102A592A3908A03E84008313000802
:10049000B200B3013208A1003308A2002E08A30065
:1004A0002F08A4008A1187228A11013083120313B6
:1004B000B90720303906031D5E2A5F2A432A862A9F
:1004C000380884008A11BD278A11753A03190E2A4B
:1004D000692A8312031330088400013083138007D4
:1004E000862A30088400000884008A11BD278A11FA
:1004F000B200B3013208A1003308A2002E08A30005
:100500002F08A4008A1187228A11692A0800831201
:1005100003132308240403198E2A8F2A952A2308FB
:100520002404031D942A952A9A2A21088A11FF2758
:100530008A11242B2308093EA50024080318013E34
:10054000003EA600250884008317261C831300089C
:10055000A700840A0008A800270828040319B12A64
:10056000B22AE42A2308093EA50024080318013E04
:10057000003EA600250884008317261C831300086C
:10058000A700840A0008A8002308023EA900240846
:100590000318013E003EAA002908840083172A1C84
:1005A00083130008AB00840A0008AC002C08803AD2
:1005B000AD002808803A2D02031DE02A27082B02EF
:1005C0000318E32AE42A242B83120313230884004C
:1005D0008317241C83130008A500840A0008A600C2
:1005E0002308023EA70024080318013E003EA8008D
:1005F000270884008317281C831300082507AA00F6
:100600002608A9000318A90A801F072BA903831233
:1006100003132908AB002A08840083172B1C8313BB
:10062000210880002308023EA50024080318013E8B
:10063000003EA600250884008317261C8313013082
:100640008007840A0318800A080083120313071C1A
:100650002A2B2B2B3B2B5D08031D2F2B302B382BEC
:1006600062080319342B362B0130372B0030E2009F
:100670006430DD00422B5D0803193F2B402B422BD9
:100680000130DD02871C452B462B602B6308031DC0
:100690004A2B4B2B602B620803194F2B502B602BDE
:1006A0005C08031D542B552B5D2B3230640203185C
:1006B0005A2B5B2B5D2B0130E4076430DC00672B89
:1006C0005C080319642B652B672B0130DC02071DC6
:1006D0006A2B6B2B852B6308031D6F2B702B852BCF
:1006E00062080319742B752B852B5B08031D792B6E
:1006F0007A2B822B0B306402031C7F2B802B822BE6
:100700000130E4026430DB008C2B5B080319892B79
:100710008A2B8C2B0130DB02871D8F2B902BA62B75
:1007200063080319942B952BA62B62080319992BA8
:100730009A2BA62B5A08031D9E2B9F2BA32BE3015C
:10074000E001E10105136430DA00AD2B5A0803190A
:10075000AA2BAB2BAD2B0130DA0208000B1DB12BFD
:10076000B22B252C83120313A0010530F0002008C2
:100770008A1526278A11C03E8400831300080319B6
:10078000C22BC32B1A2C0530F00083120313200850
:100790008A1526278A11C33E8400013083138007FF
:1007A000840A0318800A0530F0008312031320081E
:1007B0008A1526278A11C13E840083130008F6009B
:1007C000840A0008F7000530F000831203132008A4
:1007D0008A1526278A11C33E840083130008F80077
:1007E000840A0008F90077087902031DF92B7608BE
:1007F0007802031CFC2BFD2B1A2C0530F000831211
:10080000031320088A1526278A11C03E840083130B
:1008100000088A1131208A110530F0008312031379
:1008200020088A1526278A11C33E8400831380017D
:10083000840A8001013083120313A00705302002CF
:10084000031C232C242CB52B0B117D08FF007C08E6
:100850008A007B0884007A0E8300FE0E7E0E09005B
:10086000F0018312031363080319372C382C3F2C33
:10087000620803193C2C3D2C3F2C0130F000700C19
:10088000031C861303188617F10160080319492C0D
:100890004A2C512C620803194E2C4F2C512C01303C
:1008A000F100710C031C061303180617F20161080E
:1008B00003195B2C5C2C632C62080319602C612CDF
:1008C000632C0130F200720C031C87130318871786
:1008D000F301071F6C2C6D2C792C62080319712C05
:1008E000722C792C6308031D762C772C792C01301F
:1008F000F300730C031C071303180717F401871E7A
:10090000822C832C8F2C62080319872C882C8F2C27
:100910006308031D8C2C8D2C8F2C0130F400740C7B
:10092000031C871203188716F501071E982C992CB3
:10093000A52C620803199D2C9E2CA52C6308031D71
:10094000A22CA32CA52C0130F500750C031C07125A
:10095000031807160800831203136208031DB12C45
:10096000B22CBD2C5E080319B62CB72CBD2CDE01B1
:100970008A15B9278A1101301C2D63080319C12C6F
:10098000C22CDB2C62080319C62CC72CDB2C5E039F
:100990000319CB2CCC2CDB2C0130DE008A15B927B7
:1009A0008A110D3083120313A8008030A9008A1524
:1009B000DC278A11BB2C6308031DDF2CE02CBB2C29
:1009C00062080319E42CE52CBB2C5E0864060319AD
:1009D000EA2CEB2CBB2C6408DE008A15B9278A119F
:1009E000013083120313A8008030A9008A15DC2788
:1009F0008A11523083120313BF001730C0006408FD
:100A0000D000D1015008C1005108C2008A11DE2770
:100A10008A11523083120313A8000030A9008A15EE
:100A2000DC278A111A3083120313A8008030A90032
:100A30008A15DC278A11BB2C0800003083120313AF
:100A4000C4000030C3000030C2000030C1003B08C9
:100A50003A043904380403192E2D2F2D7A2D013034
:100A6000C5003D2D0130C0000310B80DB90DBA0D01
:100A7000BB0DC00B342D0130C507BB1F402D412DD0
:100A8000322D0130C0000310C10DC20DC30DC40DC5
:100A9000C00B432D3B083F02031D582D3A083E0270
:100AA000031D582D39083D02031D582D38083C02FE
:100AB000031C5B2D5C2D6B2D3808BC023908031C10
:100AC000390FBD023A08031C3A0FBE023B08031C53
:100AD0003B0FBF02411401300310BB0CBA0CB90C20
:100AE000B80CFF3E031D6C2D0130C502031D792D8E
:100AF0007A2D412D4408BB004308BA004208B900D2
:100B00004108B800080083120313A400210C031C41
:100B100006100318061424080139A200A20DA20D24
:100B200006082206FB39220686002408A2000310CC
:100B3000220C0139A300A30DA30DA30D0608230663
:100B4000F739230686002408A20002300310A20C05
:100B5000FF3E031DA62D22080139A300A30E06089F
:100B60002306EF39230686002408A2000330031071
:100B7000A20CFF3E031DB72D22080139A300A30ECE
:100B8000A30D06082306DF392306860086140630E7
:100B900083120313A3003030A200A20BCD2DA30BB0
:100BA000CD2D831203138610063083120313A30086
:100BB0003030A200A20BDA2DA30BDA2D0800003092
:100BC00083120313B7000030B6000030B5000030C8
:100BD000B4002B1CEC2DED2D042E2F08B40730088B
:100BE00003110318013E0319F62DB507310803114F
:100BF0000318013E0319FD2DB6073208031103182F
:100C0000013E0319042EB7070130B3000310AF0DE6
:100C1000B00DB10DB20DB30B062E01300310AE0CAA
:100C2000AD0CAC0CAB0CFF3E031D0E2E2E082D049C
:100C30002C042B04031D1D2E1E2EE92D3708AE009B
:100C40003608AD003508AC003408AB00080083124C
:100C50000313A7010530A10027088A1539278A1137
:100C6000C03E840083130008031D372E382E642EE7
:100C7000053083120313A10027088A1539278A112A
:100C8000C03E8400831203132408831380000530C0
:100C9000A10027088A1539278A11C13E84008312D2
:100CA0000313250883138000840A2608800005307A
:100CB000A10027088A1539278A11C33E84008313AF
:100CC0008001840A80016E2E013083120313A7076E
:100CD00005302702031C6D2E6E2E2A2E08008A1561
:100CE0004E278A118A150B278A118A1514278A1113
:100CF0008A1118218A11033083120313A400E830EB
:100D0000A5000330A6008A1127268A110530831218
:100D10000313A4000130A5000030A6008A11272685
:100D20008A11013083120313A4000130A5000030A2
:100D3000A6008A1127268A118A11AB248A11003A4B
:100D40000319A32EA42E9C2E831203136308031DE4
:100D5000AA2EAB2E9C2E62080319AF2EB02E9C2E0D
:100D60008A113D208A119C2E8A110F2883120313A9
:100D7000A501A601210822040319BF2EC02EF52EBD
:100D80000130A700CC2E01300310A10DA20DFF3EB3
:100D9000031DC42E0130A707A21FCF2ED02EC32EB5
:100DA00001300310A50DA60DFF3E031DD12E220814
:100DB0002402031DDD2E21082302031CE02EE12E58
:100DC000E82E2108A3022208031CA403A402251470
:100DD00001300310A20CA10CFF3E031DE92E0130CF
:100DE000A702031DF42EF52ED02E2608A2002508FA
:100DF000A100080083120313AA00C3309F052A082C
:100E0000A30001300310A30DFF3E031D022F0310AA
:100E1000230D9F04063083120313A4003030A30077
:100E2000A30B102FA40B102F831203139F149F18D2
:100E30001A2F1B2F172F831603131E088312031359
:100E4000A30006300310A30CFF3E031D222F23082E
:100E5000A400A5011E08A600A7010310A60DA70D5A
:100E60000310A60DA70D24082604A80025082704B2
:100E7000A9002808A1002908A20008008312031372
:100E8000CA000030BB000030BA000330B900FF30A8
:100E9000B8004A088A11FA268A118312031321081E
:100EA000C6002208C700C801C9014908AE004808A9
:100EB000AD004708AC004608AB000030B20000307F
:100EC000B1000030B0006430AF008A11DF258A1114
:100ED000831203132E08BF002D08BE002C08BD008E
:100EE0002B08BC008A111D258A11831203133808B0
:100EF000080083120313210822040319802F812F75
:100F0000AE2F0130A5008D2F01300310A10DA20DD1
:100F1000FF3E031D852F0130A507A21F902F912FA3
:100F2000842F22082402031D972F21082302031C6B
:100F30009A2F9B2FA12F2108A3022208031CA40390
:100F4000A40201300310A20CA10CFF3E031DA22F2E
:100F50000130A502031DAD2FAE2F912F2408A20052
:100F60002308A1000800FF1BBD2F83137F188317E0
:100F70000008840A0319FF0A080007308A000408E1
:100F8000840A82070034313438343334393430340D
:100F900032343234373420342034203400344C346A
:100FA0004F3443344B3420344D344F34443445347F
:100FB0000034253475340034433400344130831216
:100FC0000313C4003F08C5000030C600C701C801B4
:100FD000CE01CF014530BA000030BB004008BC0054
:100FE0004430BD008A159A278A11831203134708DB
:100FF0003F07C300430884008313800108000800F2
:101E060064008001840A0406031900340406042FC2
:101E16000630831603139F000130831203139F00BD
:101E260008008312031381018316031381128111A3
:101E36000108F839033881008B168B17013083129D
:101E46000313E5000800F200F101721C2B2F2C2F62
:101E56002E2F7008F1070310F00D0310F20C720814
:101E6600031D362F372F282F7108080083120313FE
:101E7600A300A201231C402F412F432F2108A207B4
:101E86000310A10D0310A30C2308031D4B2F4C2F89
:101E96003D2F2208080007308316031385000730FC
:101EA6008316031788008316031386018312031310
:101EB60086010F30831603138700831203138701ED
:101EC600080083120313620803196A2F6B2F7D2FF4
:101ED6006308031D6F2F702F7D2F0310071E031439
:101EE6000318762F7A2F8312031307167D2F83127A
:101EF60003130712080083120313A7002508A10085
:101F06002708A60004300310A60CFF3E031D862FEB
:101F160026080F398A1183258A158312031325088B
:101F2600A10027080F398A1183258A150800831214
:101F360003133C08BE00AA2F3A08AE003B08AF00C8
:101F46003E30B0003D08B1008A11D2218A158312B5
:101F560003133E0884008A11BD278A15003A031D23
:101F6600B52FB62F9F2FBA01BB01080083120313AA
:101F7600A50101308A157E278A15153083120313B1
:101F8600A900C630A800A80BC62FA90BC62F83121E
:101F96000313A50180308A157E278A150630831221
:101FA6000313A9003030A800A80BD72FA90BD72FF1
:101FB6000800F12FA501A50A2908FF0028088400BA
:101FC6008A11B3278A158A157E278A15013083124E
:101FD6000313A8070318A90A0030A90783120313DD
:101FE6002908FF00280884008A11B3278A15003AB9
:0A1FF600031DFE2FFF2FDD2F080052
:00000001FF
